S01600004C69667453696D756C6174696F6E2E737265635A
S11300000C942A000C94E6020C9447000C944700CC
S11300100C9447000C9447000C9447000C94500334
S11300200C9447000C9447000C94A1030C944700D3
S11300300C9447000C941A030C9447000C9447004A
S11300400C9447000C9447000C9447000C94470010
S11300500C94470011241FBECFE5D8E0DEBFCDBF0E
S113006010E0A0E6B0E0E0E2F8E002C005900D92F6
S1130070AE37B107D9F721E0AEE7B0E001C01D9279
S1130080A636B207E1F70E945A000C940E040C94B1
S11300900000CF93DF93FC018081813041F4C2E7FB
S11300A0D0E088E40E94E30089918111FBCFDF91C5
S11300B0CF9108950E94D5000E94CC0089E490E07D
S11300C00E94C7000E94B30280E090E00895F89473
S11300D0809119018F5F809319010895809119010E
S11300E0815080931901811101C0789408950F9370
S11300F01F93CF93DF930E946700909197008091A4
S11301009800981759F084E0989FE0011124C7568D
S1130110DF4F9F5F9F719093970002C0C0E0D0E0D3
S11301200E946E002097C9F0009160001091610058
S1130130F0E000361F0789F0D80112969C911297BF
S11301408881892331F01396ED91FC911497CE01A7
S11301500995F80100811181EBCFDF91CF911F91B7
S11301600F91089512BE8BE083BF8DE78CBF89B7D2
S1130170826089BF80E891E09BBD8ABD1DBC1CBC28
S11301801FBC8DE08EBD89B7806189BF08959093AF
S1130190200180931F01089510BC8CE089B986E882
S11301A080BD88E98AB9789408958FEF87BB84BBB2
S11301B08ABB11BA0E94CC0085B7836085BF8BB718
S11301C080648BBF08958CB95D9BFECF08950F9317
S11301D01F93CF93DF93C82F062FD42F122F0E9483
S11301E0670080919800E82FF0E0AF014F5F5F4F08
S11301F04F7155272091970030E04217530771F44F
S11302008FEF0E94E30080E00E94E3008FEF0E94E2
S1130210E3008EED0E94E3008DEAF9CFEE0FFF1F9D
S1130220EE0FFF1FE756FF4F01831383D283C08372
S11302308F5F8F7180939800DF91CF911F910F9101
S11302400C946E00DF92EF92FF920F931F93CF9363
S1130250DF93CEE5D1E000E010E0EE24E394F12C4E
S11302608981811124C0488140FF23C04E7F488387
S1130270202F65EC80E10E94E700888140911B01FA
S113028084FF0AC09701002E01C0220F0A94EAF7E6
S1130290242B20931B010DC0C701002E01C0880F21
S11302A00A94EAF78095842380931B0102C081504D
S11302B089830F5F1F4F22960430110589F6DF9161
S11302C0CF911F910F91FF90EF90DF900895DB0184
S11302D08230B1F58C91982F9072282F2076D9F125
S11302E021E0382F307184FF20E0992311F094E04D
S11302F001C090E08F70890F41E050E002C0440FCC
S1130300551F8A95E2F780911D0190911E01BA0153
S1130310609570958623972390931E0180931D0109
S1130320332351F080911D0190911E01842B952B54
S113033090931E0180931D0167EC81E00C94E7000B
S1130340833049F4E0911F01F0912001309719F0B6
S1130350642FCD010994089590919600911105C0E0
S11303608093960010929500089540919500411154
S113037004C082508093950015C0E0919400E41766
S113038098F421E02E0F20939400F0E0EA57FF4FF9
S11303908083421309C066E870E0892F0E946701D8
S11303A010929600109294000895CF938091840047
S11303B090918500019690938500809384008370CA
S11303C09927892B21F5809183008F5F8093830087
S11303D08370A82FB0E0AA0FBB1FA25ABE4F11967C
S11303E0EC9111979C9194FF03C094E09E1BE92F1C
S11303F0F0E0E459FF4F21E030E0A90102C0440FCE
S1130400551F8A95E2F7CA019081892B85BB80919B
S113041082008F5F8093820020912301222301F1C7
S11304208370622F70E040E150E0082E02C0440F58
S1130430551F0A94E2F746235723452B11F0809366
S11304402601082E02C0759567950A94E2F760FDAF
S113045080932401822F807F19F09091270101C09D
S113046091E02F7019F02091250101C021E08091C5
S11304702201811104C0309165003F7301C03FE344
S113048080912A01811103C08091290101C087E074
S1130490809328018091210160E4869FA0011124AA
S11304A060E8969FC0011124842B832B88BB809124
S11304B0260198E0899FA00111249091240130E243
S11304C0939FC0011124842B30912801382B40E8DC
S11304D0249FC0011124832B8BBB90913C018091FC
S11304E03D019817B9F00E946700E0913C0181E05A
S11304F08E0F80933C01F0E0E25CFE4FC08180915E
S11305003C018F7180933C010E946E008C2F0E94ED
S1130510AC01E3CF80918000909181009C012F5F1A
S11305203F4F30938100209380008F3F9F40C9F458
S113053080911A018823A9F084E00E94E30086E0F8
S11305400E94E30085EA0E94E3008AE50E94E3003A
S113055080911C010E94E30080911B01CF910C94B7
S1130560E300CF9108958AEC0E94E30010922201E7
S11305701092270110922A01109225011092210154
S113058010925F0180E280935E011092610180937A
S1130590600110926301809362011092650180935F
S11305A064018FE180936500809366000E94B2002D
S11305B020E040E061EC81E00E94E7008EEF0E94C1
S11305C0E3000E9477000E94D501FBCF1F920F9297
S11305D00FB60F9211242F933F934F935F936F9312
S11305E07F938F939F93AF93BF93EF93FF938091E8
S11305F01D0190911E01916090931E0180931D0135
S113060040911D0150911E0120E069EC80E10E949F
S1130610E700FF91EF91BF91AF919F918F917F91EF
S11306206F915F914F913F912F910F900FBE0F905B
S11306301F9018951F920F920FB60F9211242F93AB
S11306403F938F939F93EF93FF935F9B1EC0809183
S11306503D0120913C0190E001968F71992730E093
S11306608217930789F08CB1E0913D0191E09E0FD0
S113067090933D01F0E0E25CFE4F808380913D0168
S11306808F7180933D01E1CF5798FF91EF919F9136
S11306908F913F912F910F900FBE0F901F9018953F
S11306A01F920F920FB60F9211242F933F934F93E3
S11306B05F936F937F938F939F93AF93BF93EF93C6
S11306C0FF9380917F008F5F80937F0090917E00E5
S11306D09F5F90937E00609167000E9402049111D5
S11306E014C09091650060916600961761F0809146
S11306F06900890F80936500E0916A00F0916B00B6
S1130700309709F0099510927F0080917E006CE08B
S11307100E940204911104C010927E000E942201E2
S1130720FF91EF91BF91AF919F918F917F916F91C5
S11307305F914F913F912F910F900FBE0F901F909B
S113074018951F920F920FB60F921124CF92DF9239
S1130750FF920F931F932F933F934F935F936F9346
S11307607F938F939F93AF93BF93CF93DF93EF9335
S1130770FF930BE211E0C0E0D0E0CC24C394D12C71
S1130780F0903B018F2D90E00C2E02C0959587953B
S11307900A94E2F780FF18C0F801808191810197E3
S11307A091838083892B81F420E040E068EC81E030
S11307B00E94E700C6010C2E01C0880F0A94EAF7D4
S11307C08095F822F0923B0121960E5F1F4FC830AE
S11307D0D105B1F6FF91EF91DF91CF91BF91AF9128
S11307E09F918F917F916F915F914F913F912F9145
S11307F01F910F91FF90DF90CF900F900FBE0F903D
S11308001F901895991B79E004C0991F961708F05A
S1130810961B881F7A95C9F780950895F894FFCFA1
S113082060000000001F000400FF00000010307092
S1110830F048656C6C6F20576F726C640A00A0
S9030000FC
