S01600004C69667453696D756C6174696F6E2E737265635A
S11300000C942A000C948C040C9447000C94470024
S11300100C9447000C9447000C9447000C94F6048D
S11300200C9447000C9447000C947E050C944700F4
S11300300C9447000C94C0040C9447000C944700A3
S11300400C9447000C9447000C9447000C94470010
S11300500C94470011241FBECFE5D8E0DEBFCDBF0E
S113006010E0A0E6B0E0EAEDFBE002C005900D92DE
S1130070A439B107D9F721E0A4E9B0E001C01D9289
S1130080AC37B207E1F70E9463000C94EB050C94C3
S11300900000CF93DF93FC019081913049F4C8E8CC
S11300A0D0E088E40E94890289918111FBCF08C0C5
S11300B0923031F420E0418161E080E20E948D02BF
S11300C0DF91CF9108950E947B020E94720289E41D
S11300D090E00E946D028FE690E00E94C80180E6E5
S11300E090E00E94C8010E94590480E090E00895C5
S11300F0FC018181823C19F410926500089590E01E
S11301008D58904049F481E08093300168EB70E0B1
S113011080E690E00E94B801089564E970E080E60A
S113012090E00E94B8010895CF93DF93EC018A8197
S11301300E9489024A8142954F7020E061E080E28A
S11301400E948D02DF91CF910895882349F080FDAC
S113015009C090E086959F5F80FFFCCF892F0895AA
S11301608FEF089580E008950E94A50084500895BB
S1130170CF93DF93EC018981873C01F58B8181303A
S1130180B1F58A81982F907F91F10E94B4009091EB
S11301906500891749F08093660020E0482F61E0EC
S11301A080E20E948D020AC0682F80E10E9435021D
S11301B088E893E10E944705809367008981883C21
S11301C029F46091650080E20E94350289818230C1
S11301D071F48B819A8189130AC0C0E6D0E08295BC
S11301E08F708D8388E893E10E9447058F83DF91A8
S11301F0CF9108951F93CF93DF93D82F162FC82F35
S1130200C295CF708C2F0E946A028D2F6C2F0E9492
S1130210DF05911108C0C11106C0212F4D2F62ECDA
S113022081E00E948D02DF91CF911F910895262FC6
S1130230482F62E082E00E948D020895FC018181D2
S1130240813C29F48AEF90E00E9466020895823C82
S113025081F480E00E946A026AE371E08FE690E034
S11302600E94B80120E040E06DE870E080E20E9466
S11302708D020895FC012181213081F48281843032
S113028068F4EFE6F0E08683658180E20E9435023F
S113029063E971E08FE690E00E94B80108950F933E
S11302A01F93CF93DF93EC018A8182958F700E9414
S11302B06A0289818230C1F48A819B81891314C0C6
S11302C00FE610E082958F70F801868369E771E08C
S11302D0C8010E94B8018A8182958F70F8018583D4
S11302E0668180E10E943502DF91CF911F910F91C9
S11302F00895CF93DF93FC012181253C89F4228169
S1130300203171F4EC01809174000E9489026AE347
S113031071E08FE690E00E94B801CE010E948D004A
S1130320DF91CF910895809174000E942D02803254
S113033071F46FE471E08FE690E00E94B80180915F
S1130340750067E171E08295807F0E9452020895F2
S1130350F89480912F018F5F80932F0108958091ED
S11303602F01815080932F01811101C07894089549
S11303700F931F93CF93DF93EC018B010E94A8018D
S11303801C830B83DF91CF911F910F910C94AF01CC
S1130390E0917600F0917700A6E7B0E020E0E63740
S11303A0F20729F0DF010190F081E02DF7CF8D9362
S11303B09C93DC01ED93FC9308950F931F93CF93CB
S11303C0DF930E94A8019091AD008091AE00981730
S11303D059F084E0989FE0011124C155DF4F9F5FDD
S11303E09F719093AD0002C0C0E0D0E00E94AF01C5
S11303F02097C9F00091760010917700F0E006375D
S11304001F0789F0D80112969C911297888189233D
S113041031F01396ED91FC911497CE010995F801F2
S113042000811181EBCFDF91CF911F910F9108953E
S113043012BE8BE083BF8DE78CBF89B7826089BF12
S113044080E891E09BBD8ABD1DBC1CBC1FBC8DE037
S11304508EBD89B7806189BF0895E82FF0E0EE0F63
S1130460FF1FEC58FE4F80810895CF93DF93D82F60
S1130470C62F0E94A8016C2F70E08D2F8073660F29
S1130480771FFB01EC58FE4F9081982311F494E000
S11304909183FB01EC58FE4F81608083DF91CF9103
S11304A00C94AF0180937C0010927F0070938100C4
S11304B06093800090917B00981710F481E003C052
S11304C0891718F48FEF80937F000895BC0180E0B2
S11304D00C94520280933F010895909336018093C7
S11304E03501089510BC8CE089B986E880BD88E99F
S11304F08AB9789408958FEF87BB84BB8ABB11BAFD
S11305000E94720285B7836085BF8BB780648BBFFE
S113051008958CB95D9BFECF08950F931F93CF93DD
S1130520DF93C82F062FD42F122F0E94A801809189
S1130530AE00E82FF0E0AF014F5F5F4F4F715527DA
S11305402091AD0030E04217530771F48FEF0E9401
S1130550890280E00E9489028FEF0E9489028EED59
S11305600E9489028DEAF9CFEE0FFF1FEE0FFF1FE5
S1130570E155FF4F01831383D283C0838F5F8F7153
S11305808093AE00DF91CF911F910F910C94AF0136
S1130590DF92EF92FF920F931F93CF93DF93C4E701
S11305A0D1E000E010E0EE24E394F12C8981811184
S11305B024C0488140FF23C04E7F4883202F65EC30
S11305C080E10E948D0288814091310184FF0AC03C
S11305D09701002E01C0220F0A94EAF7242B2093DE
S11305E031010DC0C701002E01C0880F0A94EAF73B
S11305F0809584238093310102C0815089830F5FE9
S11306001F4F22960430110589F6DF91CF911F9177
S11306100F91FF90EF90DF900895DB018230B1F5E8
S11306208C91982F9072282F2076D9F121E0382FC1
S1130630307184FF20E0992311F094E001C090E030
S11306408F70890F41E050E002C0440F551F8A9516
S1130650E2F78091330190913401BA01609570956D
S1130660862397239093340180933301332351F0ED
S11306708091330190913401842B952B9093340114
S11306808093330167EC81E00C948D02833049F44C
S1130690E0913501F0913601309719F0642FCD01C6
S11306A0099408959091AC00911105C08093AC0019
S11306B01092AB0008954091AB00411104C08250E8
S11306C08093AB0015C0E091AA00E41798F421E0F0
S11306D02E0F2093AA00F0E0E456FF4F80834213CC
S11306E009C06CE970E0892F0E940D031092AC00E0
S11306F01092AA000895CF9380919A0090919B0044
S1130700019690939B0080939A0083709927892B7C
S113071021F5809199008F5F809399008370A82FB1
S1130720B0E0AA0FBB1FAC58BE4F1196EC911197C5
S11307309C9194FF03C094E09E1BE92FF0E0EE57D8
S1130740FF4F21E030E0A90102C0440F551F8A95F4
S1130750E2F7CA019081892B85BB809198008F5F55
S11307608093980020913901222301F18370622F34
S113077070E040E150E0082E02C0440F551F0A9477
S1130780E2F746235723452B11F080933C01082EB2
S113079002C0759567950A94E2F760FD80933A016B
S11307A0822F807F19F090913D0101C091E02F705C
S11307B019F020913B0101C021E0809138018111A1
S11307C004C030917B003F7301C03FE3809140013E
S11307D0811103C080913F0101C087E080933E01F5
S11307E08091370160E4869FA001112460E8969F00
S11307F0C0011124842B832B88BB80913C0198E099
S1130800899FA001112490913A0130E2939FC00185
S11308101124842B30913E01382B40E8249FC001E1
S11308201124832B8BBB9091520180915301981713
S1130830B9F00E94A801E091520181E08E0F8093EB
S11308405201F0E0EC5AFE4FC081809152018F7149
S1130850809352010E94AF018C2F0E945203E3CF78
S113086080919600909197009C012F5F3F4F3093A9
S11308709700209396008F3F9F40C9F480913001E8
S11308808823A9F084E00E94890286E00E948902FC
S113089085EA0E9489028AE50E94890280913201D8
S11308A00E94890280913101CF910C948902CF91E9
S11308B008958AEC0E9489021092380110923D0139
S11308C01092400110923B01109237011092750171
S11308D080E28093740110927701809376011092E4
S11308E079018093780110927B0180937A018FE1E2
S11308F080937B0080937C000E94180220E040E0FB
S113090061EC81E00E948D028EEF0E9489020E94B8
S1130910DD010E947B03FBCF1F920F920FB60F9253
S113092011242F933F934F935F936F937F938F93F0
S11309309F93AF93BF93EF93FF9380913301909173
S113094034019160909334018093330140913301D9
S11309505091340120E069EC80E10E948D02FF9106
S1130960EF91BF91AF919F918F917F916F915F9123
S11309704F913F912F910F900FBE0F901F9018959C
S11309801F920F920FB60F9211242F933F938F93C0
S11309909F93EF93FF935F9B1EC08091530120911F
S11309A0520190E001968F71992730E082179307E6
S11309B089F08CB1E091530191E09E0F9093530123
S11309C0F0E0EC5AFE4F8083809153018F71809345
S11309D05301E1CF5798FF91EF919F918F913F91F0
S11309E02F910F900FBE0F901F9018951F920F928A
S11309F00FB60F9211242F933F934F935F936F93EE
S1130A007F938F939F93AF93BF93EF93FF938091C3
S1130A1095008F5F80939500909194009F5F9093D1
S1130A20940060917D000E94DF05911114C09091A3
S1130A307B0060917C00961761F080917F00890FA4
S1130A4080937B00E0918000F0918100309709F061
S1130A50099510929500809194006CE00E94DF0546
S1130A60911104C0109294000E94C802FF91EF916A
S1130A70BF91AF919F918F917F916F915F914F91B2
S1130A803F912F910F900FBE0F901F901895FF92DA
S1130A900F931F93CF93DF93F09051012F2D30E0EC
S1130AA0C0E0D0E0A9010C2E02C0559547950A94E8
S1130AB0E2F740FD18C08C010E94A80121E030E05B
S1130AC00C2E01C0220F0A94EAF72F29209351011A
S1130AD0FE01EE0FFF1FEF5BFE4F118300830E94A8
S1130AE0AF018C2F05C02196C830D105D9F68FEF00
S1130AF0DF91CF911F910F91FF9008951F920F9254
S1130B000FB60F921124CF92DF92FF920F931F938F
S1130B102F933F934F935F936F937F938F939F9301
S1130B20AF93BF93CF93DF93EF93FF9301E411E06F
S1130B30C0E0D0E0CC24C394D12CF09051018F2D8F
S1130B4090E00C2E02C0959587950A94E2F780FFF9
S1130B5018C0F80180819181019791838083892B4A
S1130B6081F420E040E068EC81E00E948D02C6013F
S1130B700C2E01C0880F0A94EAF78095F822F092AF
S1130B80510121960E5F1F4FC830D105B1F6FF9178
S1130B90EF91DF91CF91BF91AF919F918F917F9111
S1130BA06F915F914F913F912F911F910F91FF9002
S1130BB0DF90CF900F900FBE0F901F901895991B48
S1130BC079E004C0991F961708F0961B881F7A9540
S10D0BD0C9F780950895F894FFCF4B
S1130BDA0000FF7800000000000000000000000090
S1130BEA00FF1E01020076000000001F000400FF3F
S1130BFA000000103070F048656C6C6F2D576F72EE
S1070C0A6C640A0008
S9030000FC
