S01600004C69667453696D756C6174696F6E2E737265635A
S11300000C942A000C947C040C9447000C94470034
S11300100C9447000C9447000C9447000C94E6049D
S11300200C9447000C9447000C946E050C94470004
S11300300C9447000C94B0040C9447000C944700B3
S11300400C9447000C9447000C9447000C94470010
S11300500C94470011241FBECFE5D8E0DEBFCDBF0E
S113006010E0A0E6B0E0EAEBFBE002C005900D92E0
S1130070A439B107D9F721E0A4E9B0E001C01D9289
S1130080AC37B207E1F70E9463000C94DB050C94D3
S11300900000CF93DF93FC019081913049F4C8E8CC
S11300A0D0E088E40E94790289918111FBCF08C0D5
S11300B0923031F420E0418161E080E20E947D02CF
S11300C0DF91CF9108950E946B020E94620289E43D
S11300D090E00E945D028FE690E00E94B80180E605
S11300E090E00E94B8010E94490480E090E00895E5
S11300F00895FC018181823C19F4109265000895F1
S113010090E08857904049F481E08093300161EA9F
S113011070E080E690E00E94A8010895882349F0E9
S113012080FD09C090E086959F5F80FFFCCF892FFA
S113013008958FEF089580E008950E948E00845002
S113014008950F931F93CF93DF93EC0180EA0E94ED
S1130150790289810E9479028981873C09F58B8122
S1130160813009F03FC08A81982F907FD9F10E9495
S11301709D0090916500891749F08093660020E006
S1130180482F61E080E20E947D020AC0682F80E16E
S11301900E94250288E893E10E9437058093670056
S11301A08981883C71F481EA0E94790200E610E0BA
S11301B0F80185810E947902F801658180E20E943C
S11301C025028981823071F48B819A8189130AC056
S11301D0C0E6D0E082958F708D8388E893E10E9419
S11301E037058F83DF91CF911F910F9108951F934E
S11301F0CF93DF93D82F162FC82FC295CF708C2F93
S11302000E945A028D2F6C2F0E94CF05911108C0B5
S1130210C11106C0212F4D2F62EC81E00E947D02A6
S1130220DF91CF911F910895262F482F62E082E03D
S11302300E947D020895FC018181813C29F487EFAD
S113024090E00E9456020895823C81F480E00E946E
S11302505A0267E371E08FE690E00E94A80120E073
S113026040E068E770E080E20E947D020895FC01AE
S11302702181213081F48281843068F4EFE6F0E05A
S11302808683658180E20E94250263E871E08FE63F
S113029090E00E94A80108950F931F93CF93DF93DA
S11302A0EC018A8182958F700E945A028981823082
S11302B0C1F48A819B81891314C00FE610E08295F2
S11302C08F70F801868366E771E0C8010E94A80177
S11302D08A8182958F70F8018583668180E10E940E
S11302E02502DF91CF911F910F91089580917400A1
S11302F00E941D02803131F467E371E08FE690E0E3
S11303000E94A8010895809174000E941D02803209
S113031071F46CE471E08FE690E00E94A801809192
S1130320750064E171E08295807F0E944202089525
S1130330F89480912F018F5F80932F01089580910D
S11303402F01815080932F01811101C07894089569
S11303500F931F93CF93DF93EC018B010E949801BD
S11303601C830B83DF91CF911F910F910C949F01FC
S1130370E0917600F0917700A6E7B0E020E0E63760
S1130380F20729F0DF010190F081E02DF7CF8D9382
S11303909C93DC01ED93FC9308950F931F93CF93EB
S11303A0DF930E9498019091AD008091AE00981760
S11303B059F084E0989FE0011124C155DF4F9F5FFD
S11303C09F719093AD0002C0C0E0D0E00E949F01F5
S11303D02097C9F00091760010917700F0E006377D
S11303E01F0789F0D80112969C911297888189235E
S11303F031F01396ED91FC911497CE010995F80113
S113040000811181EBCFDF91CF911F910F9108955E
S113041012BE8BE083BF8DE78CBF89B7826089BF32
S113042080E891E09BBD8ABD1DBC1CBC1FBC8DE057
S11304308EBD89B7806189BF0895E82FF0E0EE0F83
S1130440FF1FEC58FE4F80810895CF93DF93D82F80
S1130450C62F0E9498016C2F70E08D2F8073660F59
S1130460771FFB01EC58FE4F9081982311F494E020
S11304709183FB01EC58FE4F81608083DF91CF9123
S11304800C949F0180937C0010927F0070938100F4
S11304906093800090917B00981710F481E003C072
S11304A0891718F48FEF80937F000895BC0180E0D2
S11304B00C94420280933F010895909336018093F7
S11304C03501089510BC8CE089B986E880BD88E9BF
S11304D08AB9789408958FEF87BB84BB8ABB11BA1D
S11304E00E94620285B7836085BF8BB780648BBF2F
S11304F008958CB95D9BFECF08950F931F93CF93FE
S1130500DF93C82F062FD42F122F0E9498018091B9
S1130510AE00E82FF0E0AF014F5F5F4F4F715527FA
S11305202091AD0030E04217530771F48FEF0E9421
S1130530790280E00E9479028FEF0E9479028EEDA9
S11305400E9479028DEAF9CFEE0FFF1FEE0FFF1F15
S1130550E155FF4F01831383D283C0838F5F8F7173
S11305608093AE00DF91CF911F910F910C949F0166
S1130570DF92EF92FF920F931F93CF93DF93C4E721
S1130580D1E000E010E0EE24E394F12C89818111A4
S113059024C0488140FF23C04E7F4883202F65EC50
S11305A080E10E947D0288814091310184FF0AC06C
S11305B09701002E01C0220F0A94EAF7242B2093FE
S11305C031010DC0C701002E01C0880F0A94EAF75B
S11305D0809584238093310102C0815089830F5F09
S11305E01F4F22960430110589F6DF91CF911F9198
S11305F00F91FF90EF90DF900895DB018230B1F509
S11306008C91982F9072282F2076D9F121E0382FE1
S1130610307184FF20E0992311F094E001C090E050
S11306208F70890F41E050E002C0440F551F8A9536
S1130630E2F78091330190913401BA01609570958D
S1130640862397239093340180933301332351F00D
S11306508091330190913401842B952B9093340134
S11306608093330167EC81E00C947D02833049F47C
S1130670E0913501F0913601309719F0642FCD01E6
S1130680099408959091AC00911105C08093AC0039
S11306901092AB0008954091AB00411104C0825008
S11306A08093AB0015C0E091AA00E41798F421E010
S11306B02E0F2093AA00F0E0E456FF4F80834213EC
S11306C009C06CE970E0892F0E94FD021092AC0011
S11306D01092AA000895CF9380919A0090919B0064
S11306E0019690939B0080939A0083709927892B9D
S11306F021F5809199008F5F809399008370A82FD2
S1130700B0E0AA0FBB1FAC58BE4F1196EC911197E5
S11307109C9194FF03C094E09E1BE92FF0E0EE57F8
S1130720FF4F21E030E0A90102C0440F551F8A9514
S1130730E2F7CA019081892B85BB809198008F5F75
S11307408093980020913901222301F18370622F54
S113075070E040E150E0082E02C0440F551F0A9497
S1130760E2F746235723452B11F080933C01082ED2
S113077002C0759567950A94E2F760FD80933A018B
S1130780822F807F19F090913D0101C091E02F707C
S113079019F020913B0101C021E0809138018111C1
S11307A004C030917B003F7301C03FE3809140015E
S11307B0811103C080913F0101C087E080933E0115
S11307C08091370160E4869FA001112460E8969F20
S11307D0C0011124842B832B88BB80913C0198E0B9
S11307E0899FA001112490913A0130E2939FC001A6
S11307F01124842B30913E01382B40E8249FC00102
S11308001124832B8BBB9091520180915301981733
S1130810B9F00E949801E091520181E08E0F80931B
S11308205201F0E0EC5AFE4FC081809152018F7169
S1130830809352010E949F018C2F0E944203E3CFB8
S113084080919600909197009C012F5F3F4F3093C9
S11308509700209396008F3F9F40C9F48091300108
S11308608823A9F084E00E94790286E00E9479023C
S113087085EA0E9479028AE50E9479028091320118
S11308800E94790280913101CF910C947902CF9129
S113089008958AEC0E9479021092380110923D0169
S11308A01092400110923B01109237011092750191
S11308B080E2809374011092770180937601109204
S11308C079018093780110927B0180937A018FE102
S11308D080937B0080937C000E94080220E040E02B
S11308E061EC81E00E947D028EEF0E9479020E94F9
S11308F0CD010E946B03FBCF1F920F920FB60F9294
S113090011242F933F934F935F936F937F938F9310
S11309109F93AF93BF93EF93FF9380913301909193
S113092034019160909334018093330140913301F9
S11309305091340120E069EC80E10E947D02FF9136
S1130940EF91BF91AF919F918F917F916F915F9143
S11309504F913F912F910F900FBE0F901F901895BC
S11309601F920F920FB60F9211242F933F938F93E0
S11309709F93EF93FF935F9B1EC08091530120913F
S1130980520190E001968F71992730E08217930706
S113099089F08CB1E091530191E09E0F9093530143
S11309A0F0E0EC5AFE4F8083809153018F71809365
S11309B05301E1CF5798FF91EF919F918F913F9110
S11309C02F910F900FBE0F901F9018951F920F92AA
S11309D00FB60F9211242F933F934F935F936F930E
S11309E07F938F939F93AF93BF93EF93FF938091E4
S11309F095008F5F80939500909194009F5F9093F2
S1130A00940060917D000E94CF05911114C09091D3
S1130A107B0060917C00961761F080917F00890FC4
S1130A2080937B00E0918000F0918100309709F081
S1130A30099510929500809194006CE00E94CF0576
S1130A40911104C0109294000E94B802FF91EF919A
S1130A50BF91AF919F918F917F916F915F914F91D2
S1130A603F912F910F900FBE0F901F901895FF92FA
S1130A700F931F93CF93DF93F09051012F2D30E00C
S1130A80C0E0D0E0A9010C2E02C0559547950A9408
S1130A90E2F740FD18C08C010E94980121E030E08B
S1130AA00C2E01C0220F0A94EAF72F29209351013A
S1130AB0FE01EE0FFF1FEF5BFE4F118300830E94C8
S1130AC09F018C2F05C02196C830D105D9F68FEF30
S1130AD0DF91CF911F910F91FF9008951F920F9274
S1130AE00FB60F921124CF92DF92FF920F931F93B0
S1130AF02F933F934F935F936F937F938F939F9322
S1130B00AF93BF93CF93DF93EF93FF9301E411E08F
S1130B10C0E0D0E0CC24C394D12CF09051018F2DAF
S1130B2090E00C2E02C0959587950A94E2F780FF19
S1130B3018C0F80180819181019791838083892B6A
S1130B4081F420E040E068EC81E00E947D02C6016F
S1130B500C2E01C0880F0A94EAF78095F822F092CF
S1130B60510121960E5F1F4FC830D105B1F6FF9198
S1130B70EF91DF91CF91BF91AF919F918F917F9131
S1130B806F915F914F913F912F911F910F91FF9022
S1130B90DF90CF900F900FBE0F901F901895991B68
S1130BA079E004C0991F961708F0961B881F7A9560
S10D0BB0C9F780950895F894FFCF6B
S1130BBA0000FF79000000000000000000000000AF
S1130BCA00FF1B01020076000000001F000400FF62
S1130BDA000000103070F048656C6C6F2D576F720E
S1070BEA6C640A0029
S9030000FC
